:020000040000FA
:020000000328D3
:040002000034003492
:0A000600831203138501860183169F
:1000100003178801890183160313FF3085008601C9
:100020008316031360308F0083120313810183163C
:100030000313D03001050738810083120313A20196
:10004000A301A401FF30A1000B112A203420452078
:100050004120252805080739A000210603190800BA
:100060002008A100A20108002008A3000310A30D8E
:100070000310A30D0310A30D2208A3074D20860033
:100080000800A20A0730A20508000630A4000B1DD4
:1000900047280B11A40B4728080000308A002308CA
:1000A000543E03188A0A82000134023404340834AE
:1000B00010342034403480348034403420341034C0
:1000C00008340434023401340134033407340F3467
:1000D0001F343F347F34FF34FF34FE34FC34F834B3
:1000E000F034E034C0348034AA345534AA34553462
:1000F000AA345534AA34553418343C347E34FF3491
:100100007E343C341834003481344234243418347E
:100110002434423481340034FF340034FF3400345A
:08012000FF340034FF34003409
:02400E00C52FBC
:02401000FF3F70
:00000001FF
